:100000000C942A000C943F000C943F000C943F0089
:100010000C943F000C943F000C943F000C943F0064
:100020000C943F000C943F000C943F000C943F0054
:100030000C943F000C943F000C943F000C943F0044
:100040000C943F000C943F000C943F000C943F0034
:100050000C943F0011241FBECFE5D8E0DEBFCDBF1A
:1000600010E0A0E6B0E0ECECF1E002C005900D92EB
:10007000AC36B107D9F70E94DD000C94E4000C9473
:10008000000095B39F70282F207F922B95BB95B3CE
:1000900061709E7F962B95BBA99AEFEDFEE231979A
:1000A000F1F700C0000095B39C7F95BB25B32F707E
:1000B000F0E18F9FC0011124822B85BB85B38E7F19
:1000C000682B65BBA99A8FED9EE20197F1F700C0FE
:1000D000000085B38C7F85BB08958FEF84BB60E003
:1000E00083E00E9441008FEF9CE70197F1F700C089
:1000F000000060E083E00E9441008FEF9CE70197E1
:10010000F1F700C0000060E083E00E9441008FEF43
:100110009CE70197F1F700C0000060E082E00E94D8
:1001200041008FEF9CE70197F1F700C0000060E00D
:100130008CE00E9441008FEF9CE70197F1F700C02F
:10014000000060E081E00E9441008FEF9CE7019792
:10015000F1F700C0000060E080E80E9441008FEFEE
:100160009CE70197F1F700C0000060E081E00E9489
:1001700041000895EF92FF920F931F93CF93DF9367
:100180008C017C01C0E0D0E007C061E0F701819103
:100190007F010E9441002196F80101900020E9F7BB
:1001A0003197E01BF10BCE17DF0778F3DF91CF918A
:1001B0001F910F91FF90EF9008950E946D0080E6CF
:0C01C00090E00E94BA00FFCFF894FFCF3F
:0C01CC0053636F7270696F6E49505800E9
:00000001FF
